{
  "_format": "hh-sol-artifact-1",
  "contractName": "Earlysup",
  "sourceName": "contracts/Earlysup.sol",
  "abi": [
    {
      "inputs": [
        {
          "internalType": "string",
          "name": "_name",
          "type": "string"
        },
        {
          "internalType": "string",
          "name": "_symbol",
          "type": "string"
        },
        {
          "internalType": "string",
          "name": "_initBaseURI",
          "type": "string"
        }
      ],
      "stateMutability": "nonpayable",
      "type": "constructor"
    },
    {
      "anonymous": false,
      "inputs": [
        {
          "indexed": true,
          "internalType": "address",
          "name": "owner",
          "type": "address"
        },
        {
          "indexed": true,
          "internalType": "address",
          "name": "approved",
          "type": "address"
        },
        {
          "indexed": true,
          "internalType": "uint256",
          "name": "tokenId",
          "type": "uint256"
        }
      ],
      "name": "Approval",
      "type": "event"
    },
    {
      "anonymous": false,
      "inputs": [
        {
          "indexed": true,
          "internalType": "address",
          "name": "owner",
          "type": "address"
        },
        {
          "indexed": true,
          "internalType": "address",
          "name": "operator",
          "type": "address"
        },
        {
          "indexed": false,
          "internalType": "bool",
          "name": "approved",
          "type": "bool"
        }
      ],
      "name": "ApprovalForAll",
      "type": "event"
    },
    {
      "anonymous": false,
      "inputs": [
        {
          "indexed": true,
          "internalType": "address",
          "name": "previousOwner",
          "type": "address"
        },
        {
          "indexed": true,
          "internalType": "address",
          "name": "newOwner",
          "type": "address"
        }
      ],
      "name": "OwnershipTransferred",
      "type": "event"
    },
    {
      "anonymous": false,
      "inputs": [
        {
          "indexed": false,
          "internalType": "address",
          "name": "account",
          "type": "address"
        }
      ],
      "name": "Paused",
      "type": "event"
    },
    {
      "anonymous": false,
      "inputs": [
        {
          "indexed": true,
          "internalType": "address",
          "name": "from",
          "type": "address"
        },
        {
          "indexed": true,
          "internalType": "address",
          "name": "to",
          "type": "address"
        },
        {
          "indexed": true,
          "internalType": "uint256",
          "name": "tokenId",
          "type": "uint256"
        }
      ],
      "name": "Transfer",
      "type": "event"
    },
    {
      "anonymous": false,
      "inputs": [
        {
          "indexed": false,
          "internalType": "address",
          "name": "account",
          "type": "address"
        }
      ],
      "name": "Unpaused",
      "type": "event"
    },
    {
      "inputs": [],
      "name": "MAX_SUPPLY",
      "outputs": [
        {
          "internalType": "uint256",
          "name": "",
          "type": "uint256"
        }
      ],
      "stateMutability": "view",
      "type": "function"
    },
    {
      "inputs": [
        {
          "internalType": "address",
          "name": "to",
          "type": "address"
        },
        {
          "internalType": "uint256",
          "name": "tokenId",
          "type": "uint256"
        }
      ],
      "name": "approve",
      "outputs": [],
      "stateMutability": "nonpayable",
      "type": "function"
    },
    {
      "inputs": [
        {
          "internalType": "address",
          "name": "owner",
          "type": "address"
        }
      ],
      "name": "balanceOf",
      "outputs": [
        {
          "internalType": "uint256",
          "name": "",
          "type": "uint256"
        }
      ],
      "stateMutability": "view",
      "type": "function"
    },
    {
      "inputs": [],
      "name": "baseURI",
      "outputs": [
        {
          "internalType": "string",
          "name": "",
          "type": "string"
        }
      ],
      "stateMutability": "view",
      "type": "function"
    },
    {
      "inputs": [
        {
          "internalType": "uint256",
          "name": "tokenId",
          "type": "uint256"
        }
      ],
      "name": "getApproved",
      "outputs": [
        {
          "internalType": "address",
          "name": "",
          "type": "address"
        }
      ],
      "stateMutability": "view",
      "type": "function"
    },
    {
      "inputs": [
        {
          "internalType": "address",
          "name": "owner",
          "type": "address"
        },
        {
          "internalType": "address",
          "name": "operator",
          "type": "address"
        }
      ],
      "name": "isApprovedForAll",
      "outputs": [
        {
          "internalType": "bool",
          "name": "",
          "type": "bool"
        }
      ],
      "stateMutability": "view",
      "type": "function"
    },
    {
      "inputs": [],
      "name": "isSoldOut",
      "outputs": [
        {
          "internalType": "bool",
          "name": "",
          "type": "bool"
        }
      ],
      "stateMutability": "view",
      "type": "function"
    },
    {
      "inputs": [],
      "name": "mint",
      "outputs": [],
      "stateMutability": "payable",
      "type": "function"
    },
    {
      "inputs": [],
      "name": "name",
      "outputs": [
        {
          "internalType": "string",
          "name": "",
          "type": "string"
        }
      ],
      "stateMutability": "view",
      "type": "function"
    },
    {
      "inputs": [],
      "name": "owner",
      "outputs": [
        {
          "internalType": "address",
          "name": "",
          "type": "address"
        }
      ],
      "stateMutability": "view",
      "type": "function"
    },
    {
      "inputs": [
        {
          "internalType": "uint256",
          "name": "tokenId",
          "type": "uint256"
        }
      ],
      "name": "ownerOf",
      "outputs": [
        {
          "internalType": "address",
          "name": "",
          "type": "address"
        }
      ],
      "stateMutability": "view",
      "type": "function"
    },
    {
      "inputs": [],
      "name": "pause",
      "outputs": [],
      "stateMutability": "nonpayable",
      "type": "function"
    },
    {
      "inputs": [],
      "name": "paused",
      "outputs": [
        {
          "internalType": "bool",
          "name": "",
          "type": "bool"
        }
      ],
      "stateMutability": "view",
      "type": "function"
    },
    {
      "inputs": [],
      "name": "price",
      "outputs": [
        {
          "internalType": "uint256",
          "name": "",
          "type": "uint256"
        }
      ],
      "stateMutability": "view",
      "type": "function"
    },
    {
      "inputs": [],
      "name": "renounceOwnership",
      "outputs": [],
      "stateMutability": "nonpayable",
      "type": "function"
    },
    {
      "inputs": [
        {
          "internalType": "address",
          "name": "from",
          "type": "address"
        },
        {
          "internalType": "address",
          "name": "to",
          "type": "address"
        },
        {
          "internalType": "uint256",
          "name": "tokenId",
          "type": "uint256"
        }
      ],
      "name": "safeTransferFrom",
      "outputs": [],
      "stateMutability": "nonpayable",
      "type": "function"
    },
    {
      "inputs": [
        {
          "internalType": "address",
          "name": "from",
          "type": "address"
        },
        {
          "internalType": "address",
          "name": "to",
          "type": "address"
        },
        {
          "internalType": "uint256",
          "name": "tokenId",
          "type": "uint256"
        },
        {
          "internalType": "bytes",
          "name": "_data",
          "type": "bytes"
        }
      ],
      "name": "safeTransferFrom",
      "outputs": [],
      "stateMutability": "nonpayable",
      "type": "function"
    },
    {
      "inputs": [
        {
          "internalType": "address",
          "name": "operator",
          "type": "address"
        },
        {
          "internalType": "bool",
          "name": "approved",
          "type": "bool"
        }
      ],
      "name": "setApprovalForAll",
      "outputs": [],
      "stateMutability": "nonpayable",
      "type": "function"
    },
    {
      "inputs": [
        {
          "internalType": "string",
          "name": "_newBaseURI",
          "type": "string"
        }
      ],
      "name": "setBaseURI",
      "outputs": [],
      "stateMutability": "nonpayable",
      "type": "function"
    },
    {
      "inputs": [
        {
          "internalType": "uint256",
          "name": "_price",
          "type": "uint256"
        }
      ],
      "name": "setPrice",
      "outputs": [],
      "stateMutability": "nonpayable",
      "type": "function"
    },
    {
      "inputs": [
        {
          "internalType": "bytes4",
          "name": "interfaceId",
          "type": "bytes4"
        }
      ],
      "name": "supportsInterface",
      "outputs": [
        {
          "internalType": "bool",
          "name": "",
          "type": "bool"
        }
      ],
      "stateMutability": "view",
      "type": "function"
    },
    {
      "inputs": [],
      "name": "symbol",
      "outputs": [
        {
          "internalType": "string",
          "name": "",
          "type": "string"
        }
      ],
      "stateMutability": "view",
      "type": "function"
    },
    {
      "inputs": [
        {
          "internalType": "uint256",
          "name": "index",
          "type": "uint256"
        }
      ],
      "name": "tokenByIndex",
      "outputs": [
        {
          "internalType": "uint256",
          "name": "",
          "type": "uint256"
        }
      ],
      "stateMutability": "view",
      "type": "function"
    },
    {
      "inputs": [
        {
          "internalType": "address",
          "name": "owner",
          "type": "address"
        },
        {
          "internalType": "uint256",
          "name": "index",
          "type": "uint256"
        }
      ],
      "name": "tokenOfOwnerByIndex",
      "outputs": [
        {
          "internalType": "uint256",
          "name": "",
          "type": "uint256"
        }
      ],
      "stateMutability": "view",
      "type": "function"
    },
    {
      "inputs": [
        {
          "internalType": "uint256",
          "name": "tokenId",
          "type": "uint256"
        }
      ],
      "name": "tokenURI",
      "outputs": [
        {
          "internalType": "string",
          "name": "",
          "type": "string"
        }
      ],
      "stateMutability": "view",
      "type": "function"
    },
    {
      "inputs": [],
      "name": "totalSupply",
      "outputs": [
        {
          "internalType": "uint256",
          "name": "",
          "type": "uint256"
        }
      ],
      "stateMutability": "view",
      "type": "function"
    },
    {
      "inputs": [
        {
          "internalType": "address",
          "name": "from",
          "type": "address"
        },
        {
          "internalType": "address",
          "name": "to",
          "type": "address"
        },
        {
          "internalType": "uint256",
          "name": "tokenId",
          "type": "uint256"
        }
      ],
      "name": "transferFrom",
      "outputs": [],
      "stateMutability": "nonpayable",
      "type": "function"
    },
    {
      "inputs": [
        {
          "internalType": "address",
          "name": "newOwner",
          "type": "address"
        }
      ],
      "name": "transferOwnership",
      "outputs": [],
      "stateMutability": "nonpayable",
      "type": "function"
    },
    {
      "inputs": [],
      "name": "unpause",
      "outputs": [],
      "stateMutability": "nonpayable",
      "type": "function"
    },
    {
      "inputs": [],
      "name": "withdraw",
      "outputs": [],
      "stateMutability": "payable",
      "type": "function"
    }
  ],
  "bytecode": "0x6080604052662386f26fc10000600d553480156200001c57600080fd5b506040516200468a3803806200468a8339818101604052810190620000429190620003a4565b828281600090805190602001906200005c92919062000282565b5080600190805190602001906200007592919062000282565b5050506000600a60006101000a81548160ff021916908315150217905550620000b3620000a7620000e560201b60201c565b620000ed60201b60201c565b80600c9080519060200190620000cb92919062000282565b50620000dc620001b360201b60201c565b5050506200069a565b600033905090565b6000600a60019054906101000a900473ffffffffffffffffffffffffffffffffffffffff16905081600a60016101000a81548173ffffffffffffffffffffffffffffffffffffffff021916908373ffffffffffffffffffffffffffffffffffffffff1602179055508173ffffffffffffffffffffffffffffffffffffffff168173ffffffffffffffffffffffffffffffffffffffff167f8be0079c531659141344cd1fd0a4f28419497f9722a3daafe3b4186f6b6457e060405160405180910390a35050565b620001c36200026b60201b60201c565b1562000206576040517f08c379a0000000000000000000000000000000000000000000000000000000008152600401620001fd906200049a565b60405180910390fd5b6001600a60006101000a81548160ff0219169083151502179055507f62e78cea01bee320cd4e420270b5ea74000d11b0c9f74754ebdbfc544b05a25862000252620000e560201b60201c565b6040516200026191906200047d565b60405180910390a1565b6000600a60009054906101000a900460ff16905090565b828054620002909062000596565b90600052602060002090601f016020900481019282620002b4576000855562000300565b82601f10620002cf57805160ff191683800117855562000300565b8280016001018555821562000300579182015b82811115620002ff578251825591602001919060010190620002e2565b5b5090506200030f919062000313565b5090565b5b808211156200032e57600081600090555060010162000314565b5090565b6000620003496200034384620004e5565b620004bc565b9050828152602081018484840111156200036257600080fd5b6200036f84828562000560565b509392505050565b600082601f8301126200038957600080fd5b81516200039b84826020860162000332565b91505092915050565b600080600060608486031215620003ba57600080fd5b600084015167ffffffffffffffff811115620003d557600080fd5b620003e38682870162000377565b935050602084015167ffffffffffffffff8111156200040157600080fd5b6200040f8682870162000377565b925050604084015167ffffffffffffffff8111156200042d57600080fd5b6200043b8682870162000377565b9150509250925092565b62000450816200052c565b82525050565b6000620004656010836200051b565b9150620004728262000671565b602082019050919050565b600060208201905062000494600083018462000445565b92915050565b60006020820190508181036000830152620004b58162000456565b9050919050565b6000620004c8620004db565b9050620004d68282620005cc565b919050565b6000604051905090565b600067ffffffffffffffff82111562000503576200050262000631565b5b6200050e8262000660565b9050602081019050919050565b600082825260208201905092915050565b6000620005398262000540565b9050919050565b600073ffffffffffffffffffffffffffffffffffffffff82169050919050565b60005b838110156200058057808201518184015260208101905062000563565b8381111562000590576000848401525b50505050565b60006002820490506001821680620005af57607f821691505b60208210811415620005c657620005c562000602565b5b50919050565b620005d78262000660565b810181811067ffffffffffffffff82111715620005f957620005f862000631565b5b80604052505050565b7f4e487b7100000000000000000000000000000000000000000000000000000000600052602260045260246000fd5b7f4e487b7100000000000000000000000000000000000000000000000000000000600052604160045260246000fd5b6000601f19601f8301169050919050565b7f5061757361626c653a2070617573656400000000000000000000000000000000600082015250565b613fe080620006aa6000396000f3fe6080604052600436106101cd5760003560e01c80635c975abb116100f757806391b7f5ed11610095578063b88d4fde11610064578063b88d4fde14610612578063c87b56dd1461063b578063e985e9c514610678578063f2fde38b146106b5576101cd565b806391b7f5ed1461056a57806395d89b4114610593578063a035b1fe146105be578063a22cb465146105e9576101cd565b806370a08231116100d157806370a08231146104d4578063715018a6146105115780638456cb59146105285780638da5cb5b1461053f576101cd565b80635c975abb146104415780636352211e1461046c5780636c0360eb146104a9576101cd565b80632da5ea171161016f5780633f4ba83a1161013e5780633f4ba83a1461039b57806342842e0e146103b25780634f6ccce7146103db57806355f804b314610418576101cd565b80632da5ea17146102fe5780632f745c591461032957806332cb6b0c146103665780633ccfd60b14610391576101cd565b8063095ea7b3116101ab578063095ea7b3146102775780631249c58b146102a057806318160ddd146102aa57806323b872dd146102d5576101cd565b806301ffc9a7146101d257806306fdde031461020f578063081812fc1461023a575b600080fd5b3480156101de57600080fd5b506101f960048036038101906101f49190612ce0565b6106de565b60405161020691906132aa565b60405180910390f35b34801561021b57600080fd5b50610224610758565b60405161023191906132c5565b60405180910390f35b34801561024657600080fd5b50610261600480360381019061025c9190612d77565b6107ea565b60405161026e9190613243565b60405180910390f35b34801561028357600080fd5b5061029e60048036038101906102999190612ca4565b61086f565b005b6102a8610987565b005b3480156102b657600080fd5b506102bf610a74565b6040516102cc91906135a7565b60405180910390f35b3480156102e157600080fd5b506102fc60048036038101906102f79190612b9e565b610a81565b005b34801561030a57600080fd5b50610313610ae1565b60405161032091906132aa565b60405180910390f35b34801561033557600080fd5b50610350600480360381019061034b9190612ca4565b610af8565b60405161035d91906135a7565b60405180910390f35b34801561037257600080fd5b5061037b610b9d565b60405161038891906135a7565b60405180910390f35b610399610ba2565b005b3480156103a757600080fd5b506103b0610c8e565b005b3480156103be57600080fd5b506103d960048036038101906103d49190612b9e565b610d14565b005b3480156103e757600080fd5b5061040260048036038101906103fd9190612d77565b610d34565b60405161040f91906135a7565b60405180910390f35b34801561042457600080fd5b5061043f600480360381019061043a9190612d32565b610dcb565b005b34801561044d57600080fd5b50610456610e5d565b60405161046391906132aa565b60405180910390f35b34801561047857600080fd5b50610493600480360381019061048e9190612d77565b610e74565b6040516104a09190613243565b60405180910390f35b3480156104b557600080fd5b506104be610f26565b6040516104cb91906132c5565b60405180910390f35b3480156104e057600080fd5b506104fb60048036038101906104f69190612b39565b610fb4565b60405161050891906135a7565b60405180910390f35b34801561051d57600080fd5b5061052661106c565b005b34801561053457600080fd5b5061053d6110f4565b005b34801561054b57600080fd5b5061055461117a565b6040516105619190613243565b60405180910390f35b34801561057657600080fd5b50610591600480360381019061058c9190612d77565b6111a4565b005b34801561059f57600080fd5b506105a861122a565b6040516105b591906132c5565b60405180910390f35b3480156105ca57600080fd5b506105d36112bc565b6040516105e091906135a7565b60405180910390f35b3480156105f557600080fd5b50610610600480360381019061060b9190612c68565b6112c2565b005b34801561061e57600080fd5b5061063960048036038101906106349190612bed565b6112d8565b005b34801561064757600080fd5b50610662600480360381019061065d9190612d77565b61133a565b60405161066f91906132c5565b60405180910390f35b34801561068457600080fd5b5061069f600480360381019061069a9190612b62565b6113e2565b6040516106ac91906132aa565b60405180910390f35b3480156106c157600080fd5b506106dc60048036038101906106d79190612b39565b611476565b005b60007f780e9d63000000000000000000000000000000000000000000000000000000007bffffffffffffffffffffffffffffffffffffffffffffffffffffffff1916827bffffffffffffffffffffffffffffffffffffffffffffffffffffffff1916148061075157506107508261156e565b5b9050919050565b606060008054610767906137e1565b80601f0160208091040260200160405190810160405280929190818152602001828054610793906137e1565b80156107e05780601f106107b5576101008083540402835291602001916107e0565b820191906000526020600020905b8154815290600101906020018083116107c357829003601f168201915b5050505050905090565b60006107f582611650565b610834576040517f08c379a000000000000000000000000000000000000000000000000000000000815260040161082b906134a7565b60405180910390fd5b6004600083815260200190815260200160002060009054906101000a900473ffffffffffffffffffffffffffffffffffffffff169050919050565b600061087a82610e74565b90508073ffffffffffffffffffffffffffffffffffffffff168373ffffffffffffffffffffffffffffffffffffffff1614156108eb576040517f08c379a00000000000000000000000000000000000000000000000000000000081526004016108e290613527565b60405180910390fd5b8073ffffffffffffffffffffffffffffffffffffffff1661090a6116bc565b73ffffffffffffffffffffffffffffffffffffffff1614806109395750610938816109336116bc565b6113e2565b5b610978576040517f08c379a000000000000000000000000000000000000000000000000000000000815260040161096f90613427565b60405180910390fd5b61098283836116c4565b505050565b61098f610e5d565b156109cf576040517f08c379a00000000000000000000000000000000000000000000000000000000081526004016109c690613407565b60405180910390fd5b60006109d9610a74565b90506109e48161177d565b15610a24576040517f08c379a0000000000000000000000000000000000000000000000000000000008152600401610a1b90613567565b60405180910390fd5b600d54341015610a69576040517f08c379a0000000000000000000000000000000000000000000000000000000008152600401610a60906133e7565b60405180910390fd5b610a7161178b565b50565b6000600880549050905090565b610a92610a8c6116bc565b826117b0565b610ad1576040517f08c379a0000000000000000000000000000000000000000000000000000000008152600401610ac890613547565b60405180910390fd5b610adc83838361188e565b505050565b6000610af3610aee610a74565b61177d565b905090565b6000610b0383610fb4565b8210610b44576040517f08c379a0000000000000000000000000000000000000000000000000000000008152600401610b3b90613307565b60405180910390fd5b600660008473ffffffffffffffffffffffffffffffffffffffff1673ffffffffffffffffffffffffffffffffffffffff168152602001908152602001600020600083815260200190815260200160002054905092915050565b600a81565b610baa6116bc565b73ffffffffffffffffffffffffffffffffffffffff16610bc861117a565b73ffffffffffffffffffffffffffffffffffffffff1614610c1e576040517f08c379a0000000000000000000000000000000000000000000000000000000008152600401610c15906134c7565b60405180910390fd5b60004790506000610c2d61117a565b9050733c44cdddb6a900fa2b585dd299e03d12fa4293bc73ffffffffffffffffffffffffffffffffffffffff166108fc839081150290604051600060405180830381858888f19350505050158015610c89573d6000803e3d6000fd5b505050565b610c966116bc565b73ffffffffffffffffffffffffffffffffffffffff16610cb461117a565b73ffffffffffffffffffffffffffffffffffffffff1614610d0a576040517f08c379a0000000000000000000000000000000000000000000000000000000008152600401610d01906134c7565b60405180910390fd5b610d12611aea565b565b610d2f838383604051806020016040528060008152506112d8565b505050565b6000610d3e610a74565b8210610d7f576040517f08c379a0000000000000000000000000000000000000000000000000000000008152600401610d7690613587565b60405180910390fd5b60088281548110610db9577f4e487b7100000000000000000000000000000000000000000000000000000000600052603260045260246000fd5b90600052602060002001549050919050565b610dd36116bc565b73ffffffffffffffffffffffffffffffffffffffff16610df161117a565b73ffffffffffffffffffffffffffffffffffffffff1614610e47576040517f08c379a0000000000000000000000000000000000000000000000000000000008152600401610e3e906134c7565b60405180910390fd5b8181600c9190610e5892919061297b565b505050565b6000600a60009054906101000a900460ff16905090565b6000806002600084815260200190815260200160002060009054906101000a900473ffffffffffffffffffffffffffffffffffffffff169050600073ffffffffffffffffffffffffffffffffffffffff168173ffffffffffffffffffffffffffffffffffffffff161415610f1d576040517f08c379a0000000000000000000000000000000000000000000000000000000008152600401610f1490613467565b60405180910390fd5b80915050919050565b600c8054610f33906137e1565b80601f0160208091040260200160405190810160405280929190818152602001828054610f5f906137e1565b8015610fac5780601f10610f8157610100808354040283529160200191610fac565b820191906000526020600020905b815481529060010190602001808311610f8f57829003601f168201915b505050505081565b60008073ffffffffffffffffffffffffffffffffffffffff168273ffffffffffffffffffffffffffffffffffffffff161415611025576040517f08c379a000000000000000000000000000000000000000000000000000000000815260040161101c90613447565b60405180910390fd5b600360008373ffffffffffffffffffffffffffffffffffffffff1673ffffffffffffffffffffffffffffffffffffffff168152602001908152602001600020549050919050565b6110746116bc565b73ffffffffffffffffffffffffffffffffffffffff1661109261117a565b73ffffffffffffffffffffffffffffffffffffffff16146110e8576040517f08c379a00000000000000000000000000000000000000000000000000000000081526004016110df906134c7565b60405180910390fd5b6110f26000611b8c565b565b6110fc6116bc565b73ffffffffffffffffffffffffffffffffffffffff1661111a61117a565b73ffffffffffffffffffffffffffffffffffffffff1614611170576040517f08c379a0000000000000000000000000000000000000000000000000000000008152600401611167906134c7565b60405180910390fd5b611178611c52565b565b6000600a60019054906101000a900473ffffffffffffffffffffffffffffffffffffffff16905090565b6111ac6116bc565b73ffffffffffffffffffffffffffffffffffffffff166111ca61117a565b73ffffffffffffffffffffffffffffffffffffffff1614611220576040517f08c379a0000000000000000000000000000000000000000000000000000000008152600401611217906134c7565b60405180910390fd5b80600d8190555050565b606060018054611239906137e1565b80601f0160208091040260200160405190810160405280929190818152602001828054611265906137e1565b80156112b25780601f10611287576101008083540402835291602001916112b2565b820191906000526020600020905b81548152906001019060200180831161129557829003601f168201915b5050505050905090565b600d5481565b6112d46112cd6116bc565b8383611cf5565b5050565b6112e96112e36116bc565b836117b0565b611328576040517f08c379a000000000000000000000000000000000000000000000000000000000815260040161131f90613547565b60405180910390fd5b61133484848484611e62565b50505050565b606061134582611650565b611384576040517f08c379a000000000000000000000000000000000000000000000000000000000815260040161137b90613507565b60405180910390fd5b6000600c8054611393906137e1565b9050116113af57604051806020016040528060008152506113db565b600c6113ba83611ebe565b6040516020016113cb929190613214565b6040516020818303038152906040525b9050919050565b6000600560008473ffffffffffffffffffffffffffffffffffffffff1673ffffffffffffffffffffffffffffffffffffffff16815260200190815260200160002060008373ffffffffffffffffffffffffffffffffffffffff1673ffffffffffffffffffffffffffffffffffffffff16815260200190815260200160002060009054906101000a900460ff16905092915050565b61147e6116bc565b73ffffffffffffffffffffffffffffffffffffffff1661149c61117a565b73ffffffffffffffffffffffffffffffffffffffff16146114f2576040517f08c379a00000000000000000000000000000000000000000000000000000000081526004016114e9906134c7565b60405180910390fd5b600073ffffffffffffffffffffffffffffffffffffffff168173ffffffffffffffffffffffffffffffffffffffff161415611562576040517f08c379a000000000000000000000000000000000000000000000000000000000815260040161155990613347565b60405180910390fd5b61156b81611b8c565b50565b60007f80ac58cd000000000000000000000000000000000000000000000000000000007bffffffffffffffffffffffffffffffffffffffffffffffffffffffff1916827bffffffffffffffffffffffffffffffffffffffffffffffffffffffff1916148061163957507f5b5e139f000000000000000000000000000000000000000000000000000000007bffffffffffffffffffffffffffffffffffffffffffffffffffffffff1916827bffffffffffffffffffffffffffffffffffffffffffffffffffffffff1916145b8061164957506116488261206b565b5b9050919050565b60008073ffffffffffffffffffffffffffffffffffffffff166002600084815260200190815260200160002060009054906101000a900473ffffffffffffffffffffffffffffffffffffffff1673ffffffffffffffffffffffffffffffffffffffff1614159050919050565b600033905090565b816004600083815260200190815260200160002060006101000a81548173ffffffffffffffffffffffffffffffffffffffff021916908373ffffffffffffffffffffffffffffffffffffffff160217905550808273ffffffffffffffffffffffffffffffffffffffff1661173783610e74565b73ffffffffffffffffffffffffffffffffffffffff167f8c5be1e5ebec7d5bd14f71427d1e84f3dd0314c0f7b2291e5b200ac8c7c3b92560405160405180910390a45050565b6000600a8210159050919050565b6000611797600b6120d5565b90506117a3600b6120e3565b6117ad33826120f9565b50565b60006117bb82611650565b6117fa576040517f08c379a00000000000000000000000000000000000000000000000000000000081526004016117f1906133c7565b60405180910390fd5b600061180583610e74565b90508073ffffffffffffffffffffffffffffffffffffffff168473ffffffffffffffffffffffffffffffffffffffff16148061187457508373ffffffffffffffffffffffffffffffffffffffff1661185c846107ea565b73ffffffffffffffffffffffffffffffffffffffff16145b80611885575061188481856113e2565b5b91505092915050565b8273ffffffffffffffffffffffffffffffffffffffff166118ae82610e74565b73ffffffffffffffffffffffffffffffffffffffff1614611904576040517f08c379a00000000000000000000000000000000000000000000000000000000081526004016118fb906134e7565b60405180910390fd5b600073ffffffffffffffffffffffffffffffffffffffff168273ffffffffffffffffffffffffffffffffffffffff161415611974576040517f08c379a000000000000000000000000000000000000000000000000000000000815260040161196b90613387565b60405180910390fd5b61197f838383612117565b61198a6000826116c4565b6001600360008573ffffffffffffffffffffffffffffffffffffffff1673ffffffffffffffffffffffffffffffffffffffff16815260200190815260200160002060008282546119da91906136f7565b925050819055506001600360008473ffffffffffffffffffffffffffffffffffffffff1673ffffffffffffffffffffffffffffffffffffffff1681526020019081526020016000206000828254611a319190613670565b92505081905550816002600083815260200190815260200160002060006101000a81548173ffffffffffffffffffffffffffffffffffffffff021916908373ffffffffffffffffffffffffffffffffffffffff160217905550808273ffffffffffffffffffffffffffffffffffffffff168473ffffffffffffffffffffffffffffffffffffffff167fddf252ad1be2c89b69c2b068fc378daa952ba7f163c4a11628f55a4df523b3ef60405160405180910390a4505050565b611af2610e5d565b611b31576040517f08c379a0000000000000000000000000000000000000000000000000000000008152600401611b28906132e7565b60405180910390fd5b6000600a60006101000a81548160ff0219169083151502179055507f5db9ee0a495bf2e6ff9c91a7834c1ba4fdd244a5e8aa4e537bd38aeae4b073aa611b756116bc565b604051611b829190613243565b60405180910390a1565b6000600a60019054906101000a900473ffffffffffffffffffffffffffffffffffffffff16905081600a60016101000a81548173ffffffffffffffffffffffffffffffffffffffff021916908373ffffffffffffffffffffffffffffffffffffffff1602179055508173ffffffffffffffffffffffffffffffffffffffff168173ffffffffffffffffffffffffffffffffffffffff167f8be0079c531659141344cd1fd0a4f28419497f9722a3daafe3b4186f6b6457e060405160405180910390a35050565b611c5a610e5d565b15611c9a576040517f08c379a0000000000000000000000000000000000000000000000000000000008152600401611c9190613407565b60405180910390fd5b6001600a60006101000a81548160ff0219169083151502179055507f62e78cea01bee320cd4e420270b5ea74000d11b0c9f74754ebdbfc544b05a258611cde6116bc565b604051611ceb9190613243565b60405180910390a1565b8173ffffffffffffffffffffffffffffffffffffffff168373ffffffffffffffffffffffffffffffffffffffff161415611d64576040517f08c379a0000000000000000000000000000000000000000000000000000000008152600401611d5b906133a7565b60405180910390fd5b80600560008573ffffffffffffffffffffffffffffffffffffffff1673ffffffffffffffffffffffffffffffffffffffff16815260200190815260200160002060008473ffffffffffffffffffffffffffffffffffffffff1673ffffffffffffffffffffffffffffffffffffffff16815260200190815260200160002060006101000a81548160ff0219169083151502179055508173ffffffffffffffffffffffffffffffffffffffff168373ffffffffffffffffffffffffffffffffffffffff167f17307eab39ab6107e8899845ad3d59bd9653f200f220920489ca2b5937696c3183604051611e5591906132aa565b60405180910390a3505050565b611e6d84848461188e565b611e798484848461222b565b611eb8576040517f08c379a0000000000000000000000000000000000000000000000000000000008152600401611eaf90613327565b60405180910390fd5b50505050565b60606000821415611f06576040518060400160405280600181526020017f30000000000000000000000000000000000000000000000000000000000000008152509050612066565b600082905060005b60008214611f38578080611f2190613844565b915050600a82611f3191906136c6565b9150611f0e565b60008167ffffffffffffffff811115611f7a577f4e487b7100000000000000000000000000000000000000000000000000000000600052604160045260246000fd5b6040519080825280601f01601f191660200182016040528015611fac5781602001600182028036833780820191505090505b5090505b6000851461205f57600182611fc591906136f7565b9150600a85611fd4919061388d565b6030611fe09190613670565b60f81b81838151811061201c577f4e487b7100000000000000000000000000000000000000000000000000000000600052603260045260246000fd5b60200101907effffffffffffffffffffffffffffffffffffffffffffffffffffffffffffff1916908160001a905350600a8561205891906136c6565b9450611fb0565b8093505050505b919050565b60007f01ffc9a7000000000000000000000000000000000000000000000000000000007bffffffffffffffffffffffffffffffffffffffffffffffffffffffff1916827bffffffffffffffffffffffffffffffffffffffffffffffffffffffff1916149050919050565b600081600001549050919050565b6001816000016000828254019250508190555050565b6121138282604051806020016040528060008152506123c2565b5050565b61212283838361241d565b600073ffffffffffffffffffffffffffffffffffffffff168373ffffffffffffffffffffffffffffffffffffffff1614156121655761216081612422565b6121a4565b8173ffffffffffffffffffffffffffffffffffffffff168373ffffffffffffffffffffffffffffffffffffffff16146121a3576121a2838261246b565b5b5b600073ffffffffffffffffffffffffffffffffffffffff168273ffffffffffffffffffffffffffffffffffffffff1614156121e7576121e2816125d8565b612226565b8273ffffffffffffffffffffffffffffffffffffffff168273ffffffffffffffffffffffffffffffffffffffff161461222557612224828261271b565b5b5b505050565b600061224c8473ffffffffffffffffffffffffffffffffffffffff1661279a565b156123b5578373ffffffffffffffffffffffffffffffffffffffff1663150b7a026122756116bc565b8786866040518563ffffffff1660e01b8152600401612297949392919061325e565b602060405180830381600087803b1580156122b157600080fd5b505af19250505080156122e257506040513d601f19601f820116820180604052508101906122df9190612d09565b60015b612365573d8060008114612312576040519150601f19603f3d011682016040523d82523d6000602084013e612317565b606091505b5060008151141561235d576040517f08c379a000000000000000000000000000000000000000000000000000000000815260040161235490613327565b60405180910390fd5b805181602001fd5b63150b7a0260e01b7bffffffffffffffffffffffffffffffffffffffffffffffffffffffff1916817bffffffffffffffffffffffffffffffffffffffffffffffffffffffff1916149150506123ba565b600190505b949350505050565b6123cc83836127ad565b6123d9600084848461222b565b612418576040517f08c379a000000000000000000000000000000000000000000000000000000000815260040161240f90613327565b60405180910390fd5b505050565b505050565b6008805490506009600083815260200190815260200160002081905550600881908060018154018082558091505060019003906000526020600020016000909190919091505550565b6000600161247884610fb4565b61248291906136f7565b9050600060076000848152602001908152602001600020549050818114612567576000600660008673ffffffffffffffffffffffffffffffffffffffff1673ffffffffffffffffffffffffffffffffffffffff168152602001908152602001600020600084815260200190815260200160002054905080600660008773ffffffffffffffffffffffffffffffffffffffff1673ffffffffffffffffffffffffffffffffffffffff168152602001908152602001600020600084815260200190815260200160002081905550816007600083815260200190815260200160002081905550505b6007600084815260200190815260200160002060009055600660008573ffffffffffffffffffffffffffffffffffffffff1673ffffffffffffffffffffffffffffffffffffffff16815260200190815260200160002060008381526020019081526020016000206000905550505050565b600060016008805490506125ec91906136f7565b9050600060096000848152602001908152602001600020549050600060088381548110612642577f4e487b7100000000000000000000000000000000000000000000000000000000600052603260045260246000fd5b90600052602060002001549050806008838154811061268a577f4e487b7100000000000000000000000000000000000000000000000000000000600052603260045260246000fd5b9060005260206000200181905550816009600083815260200190815260200160002081905550600960008581526020019081526020016000206000905560088054806126ff577f4e487b7100000000000000000000000000000000000000000000000000000000600052603160045260246000fd5b6001900381819060005260206000200160009055905550505050565b600061272683610fb4565b905081600660008573ffffffffffffffffffffffffffffffffffffffff1673ffffffffffffffffffffffffffffffffffffffff168152602001908152602001600020600083815260200190815260200160002081905550806007600084815260200190815260200160002081905550505050565b600080823b905060008111915050919050565b600073ffffffffffffffffffffffffffffffffffffffff168273ffffffffffffffffffffffffffffffffffffffff16141561281d576040517f08c379a000000000000000000000000000000000000000000000000000000000815260040161281490613487565b60405180910390fd5b61282681611650565b15612866576040517f08c379a000000000000000000000000000000000000000000000000000000000815260040161285d90613367565b60405180910390fd5b61287260008383612117565b6001600360008473ffffffffffffffffffffffffffffffffffffffff1673ffffffffffffffffffffffffffffffffffffffff16815260200190815260200160002060008282546128c29190613670565b92505081905550816002600083815260200190815260200160002060006101000a81548173ffffffffffffffffffffffffffffffffffffffff021916908373ffffffffffffffffffffffffffffffffffffffff160217905550808273ffffffffffffffffffffffffffffffffffffffff16600073ffffffffffffffffffffffffffffffffffffffff167fddf252ad1be2c89b69c2b068fc378daa952ba7f163c4a11628f55a4df523b3ef60405160405180910390a45050565b828054612987906137e1565b90600052602060002090601f0160209004810192826129a957600085556129f0565b82601f106129c257803560ff19168380011785556129f0565b828001600101855582156129f0579182015b828111156129ef5782358255916020019190600101906129d4565b5b5090506129fd9190612a01565b5090565b5b80821115612a1a576000816000905550600101612a02565b5090565b6000612a31612a2c846135e7565b6135c2565b905082815260208101848484011115612a4957600080fd5b612a5484828561379f565b509392505050565b600081359050612a6b81613f4e565b92915050565b600081359050612a8081613f65565b92915050565b600081359050612a9581613f7c565b92915050565b600081519050612aaa81613f7c565b92915050565b600082601f830112612ac157600080fd5b8135612ad1848260208601612a1e565b91505092915050565b60008083601f840112612aec57600080fd5b8235905067ffffffffffffffff811115612b0557600080fd5b602083019150836001820283011115612b1d57600080fd5b9250929050565b600081359050612b3381613f93565b92915050565b600060208284031215612b4b57600080fd5b6000612b5984828501612a5c565b91505092915050565b60008060408385031215612b7557600080fd5b6000612b8385828601612a5c565b9250506020612b9485828601612a5c565b9150509250929050565b600080600060608486031215612bb357600080fd5b6000612bc186828701612a5c565b9350506020612bd286828701612a5c565b9250506040612be386828701612b24565b9150509250925092565b60008060008060808587031215612c0357600080fd5b6000612c1187828801612a5c565b9450506020612c2287828801612a5c565b9350506040612c3387828801612b24565b925050606085013567ffffffffffffffff811115612c5057600080fd5b612c5c87828801612ab0565b91505092959194509250565b60008060408385031215612c7b57600080fd5b6000612c8985828601612a5c565b9250506020612c9a85828601612a71565b9150509250929050565b60008060408385031215612cb757600080fd5b6000612cc585828601612a5c565b9250506020612cd685828601612b24565b9150509250929050565b600060208284031215612cf257600080fd5b6000612d0084828501612a86565b91505092915050565b600060208284031215612d1b57600080fd5b6000612d2984828501612a9b565b91505092915050565b60008060208385031215612d4557600080fd5b600083013567ffffffffffffffff811115612d5f57600080fd5b612d6b85828601612ada565b92509250509250929050565b600060208284031215612d8957600080fd5b6000612d9784828501612b24565b91505092915050565b612da98161372b565b82525050565b612db88161373d565b82525050565b6000612dc98261362d565b612dd38185613643565b9350612de38185602086016137ae565b612dec8161397a565b840191505092915050565b6000612e0282613638565b612e0c8185613654565b9350612e1c8185602086016137ae565b612e258161397a565b840191505092915050565b6000612e3b82613638565b612e458185613665565b9350612e558185602086016137ae565b80840191505092915050565b60008154612e6e816137e1565b612e788186613665565b94506001821660008114612e935760018114612ea457612ed7565b60ff19831686528186019350612ed7565b612ead85613618565b60005b83811015612ecf57815481890152600182019150602081019050612eb0565b838801955050505b50505092915050565b6000612eed601483613654565b9150612ef88261398b565b602082019050919050565b6000612f10602b83613654565b9150612f1b826139b4565b604082019050919050565b6000612f33603283613654565b9150612f3e82613a03565b604082019050919050565b6000612f56602683613654565b9150612f6182613a52565b604082019050919050565b6000612f79601c83613654565b9150612f8482613aa1565b602082019050919050565b6000612f9c602483613654565b9150612fa782613aca565b604082019050919050565b6000612fbf601983613654565b9150612fca82613b19565b602082019050919050565b6000612fe2602c83613654565b9150612fed82613b42565b604082019050919050565b6000613005601283613654565b915061301082613b91565b602082019050919050565b6000613028601083613654565b915061303382613bba565b602082019050919050565b600061304b603883613654565b915061305682613be3565b604082019050919050565b600061306e602a83613654565b915061307982613c32565b604082019050919050565b6000613091602983613654565b915061309c82613c81565b604082019050919050565b60006130b4602083613654565b91506130bf82613cd0565b602082019050919050565b60006130d7602c83613654565b91506130e282613cf9565b604082019050919050565b60006130fa600583613665565b915061310582613d48565b600582019050919050565b600061311d602083613654565b915061312882613d71565b602082019050919050565b6000613140602983613654565b915061314b82613d9a565b604082019050919050565b6000613163602f83613654565b915061316e82613de9565b604082019050919050565b6000613186602183613654565b915061319182613e38565b604082019050919050565b60006131a9603183613654565b91506131b482613e87565b604082019050919050565b60006131cc600883613654565b91506131d782613ed6565b602082019050919050565b60006131ef602c83613654565b91506131fa82613eff565b604082019050919050565b61320e81613795565b82525050565b60006132208285612e61565b915061322c8284612e30565b9150613237826130ed565b91508190509392505050565b60006020820190506132586000830184612da0565b92915050565b60006080820190506132736000830187612da0565b6132806020830186612da0565b61328d6040830185613205565b818103606083015261329f8184612dbe565b905095945050505050565b60006020820190506132bf6000830184612daf565b92915050565b600060208201905081810360008301526132df8184612df7565b905092915050565b6000602082019050818103600083015261330081612ee0565b9050919050565b6000602082019050818103600083015261332081612f03565b9050919050565b6000602082019050818103600083015261334081612f26565b9050919050565b6000602082019050818103600083015261336081612f49565b9050919050565b6000602082019050818103600083015261338081612f6c565b9050919050565b600060208201905081810360008301526133a081612f8f565b9050919050565b600060208201905081810360008301526133c081612fb2565b9050919050565b600060208201905081810360008301526133e081612fd5565b9050919050565b6000602082019050818103600083015261340081612ff8565b9050919050565b600060208201905081810360008301526134208161301b565b9050919050565b600060208201905081810360008301526134408161303e565b9050919050565b6000602082019050818103600083015261346081613061565b9050919050565b6000602082019050818103600083015261348081613084565b9050919050565b600060208201905081810360008301526134a0816130a7565b9050919050565b600060208201905081810360008301526134c0816130ca565b9050919050565b600060208201905081810360008301526134e081613110565b9050919050565b6000602082019050818103600083015261350081613133565b9050919050565b6000602082019050818103600083015261352081613156565b9050919050565b6000602082019050818103600083015261354081613179565b9050919050565b600060208201905081810360008301526135608161319c565b9050919050565b60006020820190508181036000830152613580816131bf565b9050919050565b600060208201905081810360008301526135a0816131e2565b9050919050565b60006020820190506135bc6000830184613205565b92915050565b60006135cc6135dd565b90506135d88282613813565b919050565b6000604051905090565b600067ffffffffffffffff8211156136025761360161394b565b5b61360b8261397a565b9050602081019050919050565b60008190508160005260206000209050919050565b600081519050919050565b600081519050919050565b600082825260208201905092915050565b600082825260208201905092915050565b600081905092915050565b600061367b82613795565b915061368683613795565b9250827fffffffffffffffffffffffffffffffffffffffffffffffffffffffffffffffff038211156136bb576136ba6138be565b5b828201905092915050565b60006136d182613795565b91506136dc83613795565b9250826136ec576136eb6138ed565b5b828204905092915050565b600061370282613795565b915061370d83613795565b9250828210156137205761371f6138be565b5b828203905092915050565b600061373682613775565b9050919050565b60008115159050919050565b60007fffffffff0000000000000000000000000000000000000000000000000000000082169050919050565b600073ffffffffffffffffffffffffffffffffffffffff82169050919050565b6000819050919050565b82818337600083830152505050565b60005b838110156137cc5780820151818401526020810190506137b1565b838111156137db576000848401525b50505050565b600060028204905060018216806137f957607f821691505b6020821081141561380d5761380c61391c565b5b50919050565b61381c8261397a565b810181811067ffffffffffffffff8211171561383b5761383a61394b565b5b80604052505050565b600061384f82613795565b91507fffffffffffffffffffffffffffffffffffffffffffffffffffffffffffffffff821415613882576138816138be565b5b600182019050919050565b600061389882613795565b91506138a383613795565b9250826138b3576138b26138ed565b5b828206905092915050565b7f4e487b7100000000000000000000000000000000000000000000000000000000600052601160045260246000fd5b7f4e487b7100000000000000000000000000000000000000000000000000000000600052601260045260246000fd5b7f4e487b7100000000000000000000000000000000000000000000000000000000600052602260045260246000fd5b7f4e487b7100000000000000000000000000000000000000000000000000000000600052604160045260246000fd5b6000601f19601f8301169050919050565b7f5061757361626c653a206e6f7420706175736564000000000000000000000000600082015250565b7f455243373231456e756d657261626c653a206f776e657220696e646578206f7560008201527f74206f6620626f756e6473000000000000000000000000000000000000000000602082015250565b7f4552433732313a207472616e7366657220746f206e6f6e20455243373231526560008201527f63656976657220696d706c656d656e7465720000000000000000000000000000602082015250565b7f4f776e61626c653a206e6577206f776e657220697320746865207a65726f206160008201527f6464726573730000000000000000000000000000000000000000000000000000602082015250565b7f4552433732313a20746f6b656e20616c7265616479206d696e74656400000000600082015250565b7f4552433732313a207472616e7366657220746f20746865207a65726f2061646460008201527f7265737300000000000000000000000000000000000000000000000000000000602082015250565b7f4552433732313a20617070726f766520746f2063616c6c657200000000000000600082015250565b7f4552433732313a206f70657261746f7220717565727920666f72206e6f6e657860008201527f697374656e7420746f6b656e0000000000000000000000000000000000000000602082015250565b7f496e73756666696369656e742066756e64730000000000000000000000000000600082015250565b7f5061757361626c653a2070617573656400000000000000000000000000000000600082015250565b7f4552433732313a20617070726f76652063616c6c6572206973206e6f74206f7760008201527f6e6572206e6f7220617070726f76656420666f7220616c6c0000000000000000602082015250565b7f4552433732313a2062616c616e636520717565727920666f7220746865207a6560008201527f726f206164647265737300000000000000000000000000000000000000000000602082015250565b7f4552433732313a206f776e657220717565727920666f72206e6f6e657869737460008201527f656e7420746f6b656e0000000000000000000000000000000000000000000000602082015250565b7f4552433732313a206d696e7420746f20746865207a65726f2061646472657373600082015250565b7f4552433732313a20617070726f76656420717565727920666f72206e6f6e657860008201527f697374656e7420746f6b656e0000000000000000000000000000000000000000602082015250565b7f2e6a736f6e000000000000000000000000000000000000000000000000000000600082015250565b7f4f776e61626c653a2063616c6c6572206973206e6f7420746865206f776e6572600082015250565b7f4552433732313a207472616e73666572206f6620746f6b656e2074686174206960008201527f73206e6f74206f776e0000000000000000000000000000000000000000000000602082015250565b7f4552433732314d657461646174613a2055524920717565727920666f72206e6f60008201527f6e6578697374656e7420746f6b656e0000000000000000000000000000000000602082015250565b7f4552433732313a20617070726f76616c20746f2063757272656e74206f776e6560008201527f7200000000000000000000000000000000000000000000000000000000000000602082015250565b7f4552433732313a207472616e736665722063616c6c6572206973206e6f74206f60008201527f776e6572206e6f7220617070726f766564000000000000000000000000000000602082015250565b7f536f6c64206f7574000000000000000000000000000000000000000000000000600082015250565b7f455243373231456e756d657261626c653a20676c6f62616c20696e646578206f60008201527f7574206f6620626f756e64730000000000000000000000000000000000000000602082015250565b613f578161372b565b8114613f6257600080fd5b50565b613f6e8161373d565b8114613f7957600080fd5b50565b613f8581613749565b8114613f9057600080fd5b50565b613f9c81613795565b8114613fa757600080fd5b5056fea26469706673582212209a0e2665416005f8e416d7c9cdc18d39d0b696db9de440c73f37ed9dbf9ffb5464736f6c63430008040033",
  "linkReferences": {},
  "deployedLinkReferences": {}
}