{
  "_format": "hh-sol-artifact-1",
  "contractName": "Earlysup",
  "sourceName": "contracts/Earlysup.sol",
  "abi": [
    {
      "inputs": [
        {
          "internalType": "string",
          "name": "_name",
          "type": "string"
        },
        {
          "internalType": "string",
          "name": "_symbol",
          "type": "string"
        },
        {
          "internalType": "string",
          "name": "_initBaseURI",
          "type": "string"
        }
      ],
      "stateMutability": "nonpayable",
      "type": "constructor"
    },
    {
      "anonymous": false,
      "inputs": [
        {
          "indexed": true,
          "internalType": "address",
          "name": "owner",
          "type": "address"
        },
        {
          "indexed": true,
          "internalType": "address",
          "name": "approved",
          "type": "address"
        },
        {
          "indexed": true,
          "internalType": "uint256",
          "name": "tokenId",
          "type": "uint256"
        }
      ],
      "name": "Approval",
      "type": "event"
    },
    {
      "anonymous": false,
      "inputs": [
        {
          "indexed": true,
          "internalType": "address",
          "name": "owner",
          "type": "address"
        },
        {
          "indexed": true,
          "internalType": "address",
          "name": "operator",
          "type": "address"
        },
        {
          "indexed": false,
          "internalType": "bool",
          "name": "approved",
          "type": "bool"
        }
      ],
      "name": "ApprovalForAll",
      "type": "event"
    },
    {
      "anonymous": false,
      "inputs": [
        {
          "indexed": true,
          "internalType": "address",
          "name": "previousOwner",
          "type": "address"
        },
        {
          "indexed": true,
          "internalType": "address",
          "name": "newOwner",
          "type": "address"
        }
      ],
      "name": "OwnershipTransferred",
      "type": "event"
    },
    {
      "anonymous": false,
      "inputs": [
        {
          "indexed": false,
          "internalType": "address",
          "name": "account",
          "type": "address"
        }
      ],
      "name": "Paused",
      "type": "event"
    },
    {
      "anonymous": false,
      "inputs": [
        {
          "indexed": true,
          "internalType": "address",
          "name": "from",
          "type": "address"
        },
        {
          "indexed": true,
          "internalType": "address",
          "name": "to",
          "type": "address"
        },
        {
          "indexed": true,
          "internalType": "uint256",
          "name": "tokenId",
          "type": "uint256"
        }
      ],
      "name": "Transfer",
      "type": "event"
    },
    {
      "anonymous": false,
      "inputs": [
        {
          "indexed": false,
          "internalType": "address",
          "name": "account",
          "type": "address"
        }
      ],
      "name": "Unpaused",
      "type": "event"
    },
    {
      "inputs": [],
      "name": "MAX_SUPPLY",
      "outputs": [
        {
          "internalType": "uint256",
          "name": "",
          "type": "uint256"
        }
      ],
      "stateMutability": "view",
      "type": "function"
    },
    {
      "inputs": [
        {
          "internalType": "address",
          "name": "to",
          "type": "address"
        },
        {
          "internalType": "uint256",
          "name": "tokenId",
          "type": "uint256"
        }
      ],
      "name": "approve",
      "outputs": [],
      "stateMutability": "nonpayable",
      "type": "function"
    },
    {
      "inputs": [
        {
          "internalType": "address",
          "name": "owner",
          "type": "address"
        }
      ],
      "name": "balanceOf",
      "outputs": [
        {
          "internalType": "uint256",
          "name": "",
          "type": "uint256"
        }
      ],
      "stateMutability": "view",
      "type": "function"
    },
    {
      "inputs": [],
      "name": "baseURI",
      "outputs": [
        {
          "internalType": "string",
          "name": "",
          "type": "string"
        }
      ],
      "stateMutability": "view",
      "type": "function"
    },
    {
      "inputs": [
        {
          "internalType": "uint256",
          "name": "tokenId",
          "type": "uint256"
        }
      ],
      "name": "getApproved",
      "outputs": [
        {
          "internalType": "address",
          "name": "",
          "type": "address"
        }
      ],
      "stateMutability": "view",
      "type": "function"
    },
    {
      "inputs": [
        {
          "internalType": "address",
          "name": "owner",
          "type": "address"
        },
        {
          "internalType": "address",
          "name": "operator",
          "type": "address"
        }
      ],
      "name": "isApprovedForAll",
      "outputs": [
        {
          "internalType": "bool",
          "name": "",
          "type": "bool"
        }
      ],
      "stateMutability": "view",
      "type": "function"
    },
    {
      "inputs": [],
      "name": "isSoldOut",
      "outputs": [
        {
          "internalType": "bool",
          "name": "",
          "type": "bool"
        }
      ],
      "stateMutability": "view",
      "type": "function"
    },
    {
      "inputs": [],
      "name": "mint",
      "outputs": [],
      "stateMutability": "payable",
      "type": "function"
    },
    {
      "inputs": [],
      "name": "name",
      "outputs": [
        {
          "internalType": "string",
          "name": "",
          "type": "string"
        }
      ],
      "stateMutability": "view",
      "type": "function"
    },
    {
      "inputs": [],
      "name": "owner",
      "outputs": [
        {
          "internalType": "address",
          "name": "",
          "type": "address"
        }
      ],
      "stateMutability": "view",
      "type": "function"
    },
    {
      "inputs": [
        {
          "internalType": "uint256",
          "name": "tokenId",
          "type": "uint256"
        }
      ],
      "name": "ownerOf",
      "outputs": [
        {
          "internalType": "address",
          "name": "",
          "type": "address"
        }
      ],
      "stateMutability": "view",
      "type": "function"
    },
    {
      "inputs": [],
      "name": "pause",
      "outputs": [],
      "stateMutability": "nonpayable",
      "type": "function"
    },
    {
      "inputs": [],
      "name": "paused",
      "outputs": [
        {
          "internalType": "bool",
          "name": "",
          "type": "bool"
        }
      ],
      "stateMutability": "view",
      "type": "function"
    },
    {
      "inputs": [],
      "name": "price",
      "outputs": [
        {
          "internalType": "uint256",
          "name": "",
          "type": "uint256"
        }
      ],
      "stateMutability": "view",
      "type": "function"
    },
    {
      "inputs": [],
      "name": "renounceOwnership",
      "outputs": [],
      "stateMutability": "nonpayable",
      "type": "function"
    },
    {
      "inputs": [
        {
          "internalType": "address",
          "name": "from",
          "type": "address"
        },
        {
          "internalType": "address",
          "name": "to",
          "type": "address"
        },
        {
          "internalType": "uint256",
          "name": "tokenId",
          "type": "uint256"
        }
      ],
      "name": "safeTransferFrom",
      "outputs": [],
      "stateMutability": "nonpayable",
      "type": "function"
    },
    {
      "inputs": [
        {
          "internalType": "address",
          "name": "from",
          "type": "address"
        },
        {
          "internalType": "address",
          "name": "to",
          "type": "address"
        },
        {
          "internalType": "uint256",
          "name": "tokenId",
          "type": "uint256"
        },
        {
          "internalType": "bytes",
          "name": "_data",
          "type": "bytes"
        }
      ],
      "name": "safeTransferFrom",
      "outputs": [],
      "stateMutability": "nonpayable",
      "type": "function"
    },
    {
      "inputs": [
        {
          "internalType": "address",
          "name": "operator",
          "type": "address"
        },
        {
          "internalType": "bool",
          "name": "approved",
          "type": "bool"
        }
      ],
      "name": "setApprovalForAll",
      "outputs": [],
      "stateMutability": "nonpayable",
      "type": "function"
    },
    {
      "inputs": [
        {
          "internalType": "string",
          "name": "_newBaseURI",
          "type": "string"
        }
      ],
      "name": "setBaseURI",
      "outputs": [],
      "stateMutability": "nonpayable",
      "type": "function"
    },
    {
      "inputs": [
        {
          "internalType": "uint256",
          "name": "_price",
          "type": "uint256"
        }
      ],
      "name": "setPrice",
      "outputs": [],
      "stateMutability": "nonpayable",
      "type": "function"
    },
    {
      "inputs": [
        {
          "internalType": "bytes4",
          "name": "interfaceId",
          "type": "bytes4"
        }
      ],
      "name": "supportsInterface",
      "outputs": [
        {
          "internalType": "bool",
          "name": "",
          "type": "bool"
        }
      ],
      "stateMutability": "view",
      "type": "function"
    },
    {
      "inputs": [],
      "name": "symbol",
      "outputs": [
        {
          "internalType": "string",
          "name": "",
          "type": "string"
        }
      ],
      "stateMutability": "view",
      "type": "function"
    },
    {
      "inputs": [
        {
          "internalType": "uint256",
          "name": "index",
          "type": "uint256"
        }
      ],
      "name": "tokenByIndex",
      "outputs": [
        {
          "internalType": "uint256",
          "name": "",
          "type": "uint256"
        }
      ],
      "stateMutability": "view",
      "type": "function"
    },
    {
      "inputs": [
        {
          "internalType": "address",
          "name": "owner",
          "type": "address"
        },
        {
          "internalType": "uint256",
          "name": "index",
          "type": "uint256"
        }
      ],
      "name": "tokenOfOwnerByIndex",
      "outputs": [
        {
          "internalType": "uint256",
          "name": "",
          "type": "uint256"
        }
      ],
      "stateMutability": "view",
      "type": "function"
    },
    {
      "inputs": [
        {
          "internalType": "uint256",
          "name": "tokenId",
          "type": "uint256"
        }
      ],
      "name": "tokenURI",
      "outputs": [
        {
          "internalType": "string",
          "name": "",
          "type": "string"
        }
      ],
      "stateMutability": "view",
      "type": "function"
    },
    {
      "inputs": [],
      "name": "totalSupply",
      "outputs": [
        {
          "internalType": "uint256",
          "name": "",
          "type": "uint256"
        }
      ],
      "stateMutability": "view",
      "type": "function"
    },
    {
      "inputs": [
        {
          "internalType": "address",
          "name": "from",
          "type": "address"
        },
        {
          "internalType": "address",
          "name": "to",
          "type": "address"
        },
        {
          "internalType": "uint256",
          "name": "tokenId",
          "type": "uint256"
        }
      ],
      "name": "transferFrom",
      "outputs": [],
      "stateMutability": "nonpayable",
      "type": "function"
    },
    {
      "inputs": [
        {
          "internalType": "address",
          "name": "newOwner",
          "type": "address"
        }
      ],
      "name": "transferOwnership",
      "outputs": [],
      "stateMutability": "nonpayable",
      "type": "function"
    },
    {
      "inputs": [],
      "name": "unpause",
      "outputs": [],
      "stateMutability": "nonpayable",
      "type": "function"
    },
    {
      "inputs": [],
      "name": "withdraw",
      "outputs": [],
      "stateMutability": "payable",
      "type": "function"
    }
  ],
  "bytecode": "0x6080604052678ac7230489e80000600d553480156200001d57600080fd5b5060405162004679380380620046798339818101604052810190620000439190620003a5565b828281600090805190602001906200005d92919062000283565b5080600190805190602001906200007692919062000283565b5050506000600a60006101000a81548160ff021916908315150217905550620000b4620000a8620000e660201b60201c565b620000ee60201b60201c565b80600c9080519060200190620000cc92919062000283565b50620000dd620001b460201b60201c565b5050506200069b565b600033905090565b6000600a60019054906101000a900473ffffffffffffffffffffffffffffffffffffffff16905081600a60016101000a81548173ffffffffffffffffffffffffffffffffffffffff021916908373ffffffffffffffffffffffffffffffffffffffff1602179055508173ffffffffffffffffffffffffffffffffffffffff168173ffffffffffffffffffffffffffffffffffffffff167f8be0079c531659141344cd1fd0a4f28419497f9722a3daafe3b4186f6b6457e060405160405180910390a35050565b620001c46200026c60201b60201c565b1562000207576040517f08c379a0000000000000000000000000000000000000000000000000000000008152600401620001fe906200049b565b60405180910390fd5b6001600a60006101000a81548160ff0219169083151502179055507f62e78cea01bee320cd4e420270b5ea74000d11b0c9f74754ebdbfc544b05a25862000253620000e660201b60201c565b6040516200026291906200047e565b60405180910390a1565b6000600a60009054906101000a900460ff16905090565b828054620002919062000597565b90600052602060002090601f016020900481019282620002b5576000855562000301565b82601f10620002d057805160ff191683800117855562000301565b8280016001018555821562000301579182015b8281111562000300578251825591602001919060010190620002e3565b5b50905062000310919062000314565b5090565b5b808211156200032f57600081600090555060010162000315565b5090565b60006200034a6200034484620004e6565b620004bd565b9050828152602081018484840111156200036357600080fd5b6200037084828562000561565b509392505050565b600082601f8301126200038a57600080fd5b81516200039c84826020860162000333565b91505092915050565b600080600060608486031215620003bb57600080fd5b600084015167ffffffffffffffff811115620003d657600080fd5b620003e48682870162000378565b935050602084015167ffffffffffffffff8111156200040257600080fd5b620004108682870162000378565b925050604084015167ffffffffffffffff8111156200042e57600080fd5b6200043c8682870162000378565b9150509250925092565b62000451816200052d565b82525050565b6000620004666010836200051c565b9150620004738262000672565b602082019050919050565b600060208201905062000495600083018462000446565b92915050565b60006020820190508181036000830152620004b68162000457565b9050919050565b6000620004c9620004dc565b9050620004d78282620005cd565b919050565b6000604051905090565b600067ffffffffffffffff82111562000504576200050362000632565b5b6200050f8262000661565b9050602081019050919050565b600082825260208201905092915050565b60006200053a8262000541565b9050919050565b600073ffffffffffffffffffffffffffffffffffffffff82169050919050565b60005b838110156200058157808201518184015260208101905062000564565b8381111562000591576000848401525b50505050565b60006002820490506001821680620005b057607f821691505b60208210811415620005c757620005c662000603565b5b50919050565b620005d88262000661565b810181811067ffffffffffffffff82111715620005fa57620005f962000632565b5b80604052505050565b7f4e487b7100000000000000000000000000000000000000000000000000000000600052602260045260246000fd5b7f4e487b7100000000000000000000000000000000000000000000000000000000600052604160045260246000fd5b6000601f19601f8301169050919050565b7f5061757361626c653a2070617573656400000000000000000000000000000000600082015250565b613fce80620006ab6000396000f3fe6080604052600436106101cd5760003560e01c80635c975abb116100f757806391b7f5ed11610095578063b88d4fde11610064578063b88d4fde14610612578063c87b56dd1461063b578063e985e9c514610678578063f2fde38b146106b5576101cd565b806391b7f5ed1461056a57806395d89b4114610593578063a035b1fe146105be578063a22cb465146105e9576101cd565b806370a08231116100d157806370a08231146104d4578063715018a6146105115780638456cb59146105285780638da5cb5b1461053f576101cd565b80635c975abb146104415780636352211e1461046c5780636c0360eb146104a9576101cd565b80632da5ea171161016f5780633f4ba83a1161013e5780633f4ba83a1461039b57806342842e0e146103b25780634f6ccce7146103db57806355f804b314610418576101cd565b80632da5ea17146102fe5780632f745c591461032957806332cb6b0c146103665780633ccfd60b14610391576101cd565b8063095ea7b3116101ab578063095ea7b3146102775780631249c58b146102a057806318160ddd146102aa57806323b872dd146102d5576101cd565b806301ffc9a7146101d257806306fdde031461020f578063081812fc1461023a575b600080fd5b3480156101de57600080fd5b506101f960048036038101906101f49190612cce565b6106de565b6040516102069190613298565b60405180910390f35b34801561021b57600080fd5b50610224610758565b60405161023191906132b3565b60405180910390f35b34801561024657600080fd5b50610261600480360381019061025c9190612d65565b6107ea565b60405161026e9190613231565b60405180910390f35b34801561028357600080fd5b5061029e60048036038101906102999190612c92565b61086f565b005b6102a8610987565b005b3480156102b657600080fd5b506102bf610a74565b6040516102cc9190613595565b60405180910390f35b3480156102e157600080fd5b506102fc60048036038101906102f79190612b8c565b610a81565b005b34801561030a57600080fd5b50610313610ae1565b6040516103209190613298565b60405180910390f35b34801561033557600080fd5b50610350600480360381019061034b9190612c92565b610af8565b60405161035d9190613595565b60405180910390f35b34801561037257600080fd5b5061037b610b9d565b6040516103889190613595565b60405180910390f35b610399610ba3565b005b3480156103a757600080fd5b506103b0610c7b565b005b3480156103be57600080fd5b506103d960048036038101906103d49190612b8c565b610d01565b005b3480156103e757600080fd5b5061040260048036038101906103fd9190612d65565b610d21565b60405161040f9190613595565b60405180910390f35b34801561042457600080fd5b5061043f600480360381019061043a9190612d20565b610db8565b005b34801561044d57600080fd5b50610456610e4a565b6040516104639190613298565b60405180910390f35b34801561047857600080fd5b50610493600480360381019061048e9190612d65565b610e61565b6040516104a09190613231565b60405180910390f35b3480156104b557600080fd5b506104be610f13565b6040516104cb91906132b3565b60405180910390f35b3480156104e057600080fd5b506104fb60048036038101906104f69190612b27565b610fa1565b6040516105089190613595565b60405180910390f35b34801561051d57600080fd5b50610526611059565b005b34801561053457600080fd5b5061053d6110e1565b005b34801561054b57600080fd5b50610554611167565b6040516105619190613231565b60405180910390f35b34801561057657600080fd5b50610591600480360381019061058c9190612d65565b611191565b005b34801561059f57600080fd5b506105a8611217565b6040516105b591906132b3565b60405180910390f35b3480156105ca57600080fd5b506105d36112a9565b6040516105e09190613595565b60405180910390f35b3480156105f557600080fd5b50610610600480360381019061060b9190612c56565b6112af565b005b34801561061e57600080fd5b5061063960048036038101906106349190612bdb565b6112c5565b005b34801561064757600080fd5b50610662600480360381019061065d9190612d65565b611327565b60405161066f91906132b3565b60405180910390f35b34801561068457600080fd5b5061069f600480360381019061069a9190612b50565b6113cf565b6040516106ac9190613298565b60405180910390f35b3480156106c157600080fd5b506106dc60048036038101906106d79190612b27565b611463565b005b60007f780e9d63000000000000000000000000000000000000000000000000000000007bffffffffffffffffffffffffffffffffffffffffffffffffffffffff1916827bffffffffffffffffffffffffffffffffffffffffffffffffffffffff1916148061075157506107508261155b565b5b9050919050565b606060008054610767906137cf565b80601f0160208091040260200160405190810160405280929190818152602001828054610793906137cf565b80156107e05780601f106107b5576101008083540402835291602001916107e0565b820191906000526020600020905b8154815290600101906020018083116107c357829003601f168201915b5050505050905090565b60006107f58261163d565b610834576040517f08c379a000000000000000000000000000000000000000000000000000000000815260040161082b90613495565b60405180910390fd5b6004600083815260200190815260200160002060009054906101000a900473ffffffffffffffffffffffffffffffffffffffff169050919050565b600061087a82610e61565b90508073ffffffffffffffffffffffffffffffffffffffff168373ffffffffffffffffffffffffffffffffffffffff1614156108eb576040517f08c379a00000000000000000000000000000000000000000000000000000000081526004016108e290613515565b60405180910390fd5b8073ffffffffffffffffffffffffffffffffffffffff1661090a6116a9565b73ffffffffffffffffffffffffffffffffffffffff1614806109395750610938816109336116a9565b6113cf565b5b610978576040517f08c379a000000000000000000000000000000000000000000000000000000000815260040161096f90613415565b60405180910390fd5b61098283836116b1565b505050565b61098f610e4a565b156109cf576040517f08c379a00000000000000000000000000000000000000000000000000000000081526004016109c6906133f5565b60405180910390fd5b60006109d9610a74565b90506109e48161176a565b15610a24576040517f08c379a0000000000000000000000000000000000000000000000000000000008152600401610a1b90613555565b60405180910390fd5b600d54341015610a69576040517f08c379a0000000000000000000000000000000000000000000000000000000008152600401610a60906133d5565b60405180910390fd5b610a71611779565b50565b6000600880549050905090565b610a92610a8c6116a9565b8261179e565b610ad1576040517f08c379a0000000000000000000000000000000000000000000000000000000008152600401610ac890613535565b60405180910390fd5b610adc83838361187c565b505050565b6000610af3610aee610a74565b61176a565b905090565b6000610b0383610fa1565b8210610b44576040517f08c379a0000000000000000000000000000000000000000000000000000000008152600401610b3b906132f5565b60405180910390fd5b600660008473ffffffffffffffffffffffffffffffffffffffff1673ffffffffffffffffffffffffffffffffffffffff168152602001908152602001600020600083815260200190815260200160002054905092915050565b61271081565b610bab6116a9565b73ffffffffffffffffffffffffffffffffffffffff16610bc9611167565b73ffffffffffffffffffffffffffffffffffffffff1614610c1f576040517f08c379a0000000000000000000000000000000000000000000000000000000008152600401610c16906134b5565b60405180910390fd5b60004790506000610c2e611167565b90508073ffffffffffffffffffffffffffffffffffffffff166108fc839081150290604051600060405180830381858888f19350505050158015610c76573d6000803e3d6000fd5b505050565b610c836116a9565b73ffffffffffffffffffffffffffffffffffffffff16610ca1611167565b73ffffffffffffffffffffffffffffffffffffffff1614610cf7576040517f08c379a0000000000000000000000000000000000000000000000000000000008152600401610cee906134b5565b60405180910390fd5b610cff611ad8565b565b610d1c838383604051806020016040528060008152506112c5565b505050565b6000610d2b610a74565b8210610d6c576040517f08c379a0000000000000000000000000000000000000000000000000000000008152600401610d6390613575565b60405180910390fd5b60088281548110610da6577f4e487b7100000000000000000000000000000000000000000000000000000000600052603260045260246000fd5b90600052602060002001549050919050565b610dc06116a9565b73ffffffffffffffffffffffffffffffffffffffff16610dde611167565b73ffffffffffffffffffffffffffffffffffffffff1614610e34576040517f08c379a0000000000000000000000000000000000000000000000000000000008152600401610e2b906134b5565b60405180910390fd5b8181600c9190610e45929190612969565b505050565b6000600a60009054906101000a900460ff16905090565b6000806002600084815260200190815260200160002060009054906101000a900473ffffffffffffffffffffffffffffffffffffffff169050600073ffffffffffffffffffffffffffffffffffffffff168173ffffffffffffffffffffffffffffffffffffffff161415610f0a576040517f08c379a0000000000000000000000000000000000000000000000000000000008152600401610f0190613455565b60405180910390fd5b80915050919050565b600c8054610f20906137cf565b80601f0160208091040260200160405190810160405280929190818152602001828054610f4c906137cf565b8015610f995780601f10610f6e57610100808354040283529160200191610f99565b820191906000526020600020905b815481529060010190602001808311610f7c57829003601f168201915b505050505081565b60008073ffffffffffffffffffffffffffffffffffffffff168273ffffffffffffffffffffffffffffffffffffffff161415611012576040517f08c379a000000000000000000000000000000000000000000000000000000000815260040161100990613435565b60405180910390fd5b600360008373ffffffffffffffffffffffffffffffffffffffff1673ffffffffffffffffffffffffffffffffffffffff168152602001908152602001600020549050919050565b6110616116a9565b73ffffffffffffffffffffffffffffffffffffffff1661107f611167565b73ffffffffffffffffffffffffffffffffffffffff16146110d5576040517f08c379a00000000000000000000000000000000000000000000000000000000081526004016110cc906134b5565b60405180910390fd5b6110df6000611b7a565b565b6110e96116a9565b73ffffffffffffffffffffffffffffffffffffffff16611107611167565b73ffffffffffffffffffffffffffffffffffffffff161461115d576040517f08c379a0000000000000000000000000000000000000000000000000000000008152600401611154906134b5565b60405180910390fd5b611165611c40565b565b6000600a60019054906101000a900473ffffffffffffffffffffffffffffffffffffffff16905090565b6111996116a9565b73ffffffffffffffffffffffffffffffffffffffff166111b7611167565b73ffffffffffffffffffffffffffffffffffffffff161461120d576040517f08c379a0000000000000000000000000000000000000000000000000000000008152600401611204906134b5565b60405180910390fd5b80600d8190555050565b606060018054611226906137cf565b80601f0160208091040260200160405190810160405280929190818152602001828054611252906137cf565b801561129f5780601f106112745761010080835404028352916020019161129f565b820191906000526020600020905b81548152906001019060200180831161128257829003601f168201915b5050505050905090565b600d5481565b6112c16112ba6116a9565b8383611ce3565b5050565b6112d66112d06116a9565b8361179e565b611315576040517f08c379a000000000000000000000000000000000000000000000000000000000815260040161130c90613535565b60405180910390fd5b61132184848484611e50565b50505050565b60606113328261163d565b611371576040517f08c379a0000000000000000000000000000000000000000000000000000000008152600401611368906134f5565b60405180910390fd5b6000600c8054611380906137cf565b90501161139c57604051806020016040528060008152506113c8565b600c6113a783611eac565b6040516020016113b8929190613202565b6040516020818303038152906040525b9050919050565b6000600560008473ffffffffffffffffffffffffffffffffffffffff1673ffffffffffffffffffffffffffffffffffffffff16815260200190815260200160002060008373ffffffffffffffffffffffffffffffffffffffff1673ffffffffffffffffffffffffffffffffffffffff16815260200190815260200160002060009054906101000a900460ff16905092915050565b61146b6116a9565b73ffffffffffffffffffffffffffffffffffffffff16611489611167565b73ffffffffffffffffffffffffffffffffffffffff16146114df576040517f08c379a00000000000000000000000000000000000000000000000000000000081526004016114d6906134b5565b60405180910390fd5b600073ffffffffffffffffffffffffffffffffffffffff168173ffffffffffffffffffffffffffffffffffffffff16141561154f576040517f08c379a000000000000000000000000000000000000000000000000000000000815260040161154690613335565b60405180910390fd5b61155881611b7a565b50565b60007f80ac58cd000000000000000000000000000000000000000000000000000000007bffffffffffffffffffffffffffffffffffffffffffffffffffffffff1916827bffffffffffffffffffffffffffffffffffffffffffffffffffffffff1916148061162657507f5b5e139f000000000000000000000000000000000000000000000000000000007bffffffffffffffffffffffffffffffffffffffffffffffffffffffff1916827bffffffffffffffffffffffffffffffffffffffffffffffffffffffff1916145b80611636575061163582612059565b5b9050919050565b60008073ffffffffffffffffffffffffffffffffffffffff166002600084815260200190815260200160002060009054906101000a900473ffffffffffffffffffffffffffffffffffffffff1673ffffffffffffffffffffffffffffffffffffffff1614159050919050565b600033905090565b816004600083815260200190815260200160002060006101000a81548173ffffffffffffffffffffffffffffffffffffffff021916908373ffffffffffffffffffffffffffffffffffffffff160217905550808273ffffffffffffffffffffffffffffffffffffffff1661172483610e61565b73ffffffffffffffffffffffffffffffffffffffff167f8c5be1e5ebec7d5bd14f71427d1e84f3dd0314c0f7b2291e5b200ac8c7c3b92560405160405180910390a45050565b60006127108210159050919050565b6000611785600b6120c3565b9050611791600b6120d1565b61179b33826120e7565b50565b60006117a98261163d565b6117e8576040517f08c379a00000000000000000000000000000000000000000000000000000000081526004016117df906133b5565b60405180910390fd5b60006117f383610e61565b90508073ffffffffffffffffffffffffffffffffffffffff168473ffffffffffffffffffffffffffffffffffffffff16148061186257508373ffffffffffffffffffffffffffffffffffffffff1661184a846107ea565b73ffffffffffffffffffffffffffffffffffffffff16145b80611873575061187281856113cf565b5b91505092915050565b8273ffffffffffffffffffffffffffffffffffffffff1661189c82610e61565b73ffffffffffffffffffffffffffffffffffffffff16146118f2576040517f08c379a00000000000000000000000000000000000000000000000000000000081526004016118e9906134d5565b60405180910390fd5b600073ffffffffffffffffffffffffffffffffffffffff168273ffffffffffffffffffffffffffffffffffffffff161415611962576040517f08c379a000000000000000000000000000000000000000000000000000000000815260040161195990613375565b60405180910390fd5b61196d838383612105565b6119786000826116b1565b6001600360008573ffffffffffffffffffffffffffffffffffffffff1673ffffffffffffffffffffffffffffffffffffffff16815260200190815260200160002060008282546119c891906136e5565b925050819055506001600360008473ffffffffffffffffffffffffffffffffffffffff1673ffffffffffffffffffffffffffffffffffffffff1681526020019081526020016000206000828254611a1f919061365e565b92505081905550816002600083815260200190815260200160002060006101000a81548173ffffffffffffffffffffffffffffffffffffffff021916908373ffffffffffffffffffffffffffffffffffffffff160217905550808273ffffffffffffffffffffffffffffffffffffffff168473ffffffffffffffffffffffffffffffffffffffff167fddf252ad1be2c89b69c2b068fc378daa952ba7f163c4a11628f55a4df523b3ef60405160405180910390a4505050565b611ae0610e4a565b611b1f576040517f08c379a0000000000000000000000000000000000000000000000000000000008152600401611b16906132d5565b60405180910390fd5b6000600a60006101000a81548160ff0219169083151502179055507f5db9ee0a495bf2e6ff9c91a7834c1ba4fdd244a5e8aa4e537bd38aeae4b073aa611b636116a9565b604051611b709190613231565b60405180910390a1565b6000600a60019054906101000a900473ffffffffffffffffffffffffffffffffffffffff16905081600a60016101000a81548173ffffffffffffffffffffffffffffffffffffffff021916908373ffffffffffffffffffffffffffffffffffffffff1602179055508173ffffffffffffffffffffffffffffffffffffffff168173ffffffffffffffffffffffffffffffffffffffff167f8be0079c531659141344cd1fd0a4f28419497f9722a3daafe3b4186f6b6457e060405160405180910390a35050565b611c48610e4a565b15611c88576040517f08c379a0000000000000000000000000000000000000000000000000000000008152600401611c7f906133f5565b60405180910390fd5b6001600a60006101000a81548160ff0219169083151502179055507f62e78cea01bee320cd4e420270b5ea74000d11b0c9f74754ebdbfc544b05a258611ccc6116a9565b604051611cd99190613231565b60405180910390a1565b8173ffffffffffffffffffffffffffffffffffffffff168373ffffffffffffffffffffffffffffffffffffffff161415611d52576040517f08c379a0000000000000000000000000000000000000000000000000000000008152600401611d4990613395565b60405180910390fd5b80600560008573ffffffffffffffffffffffffffffffffffffffff1673ffffffffffffffffffffffffffffffffffffffff16815260200190815260200160002060008473ffffffffffffffffffffffffffffffffffffffff1673ffffffffffffffffffffffffffffffffffffffff16815260200190815260200160002060006101000a81548160ff0219169083151502179055508173ffffffffffffffffffffffffffffffffffffffff168373ffffffffffffffffffffffffffffffffffffffff167f17307eab39ab6107e8899845ad3d59bd9653f200f220920489ca2b5937696c3183604051611e439190613298565b60405180910390a3505050565b611e5b84848461187c565b611e6784848484612219565b611ea6576040517f08c379a0000000000000000000000000000000000000000000000000000000008152600401611e9d90613315565b60405180910390fd5b50505050565b60606000821415611ef4576040518060400160405280600181526020017f30000000000000000000000000000000000000000000000000000000000000008152509050612054565b600082905060005b60008214611f26578080611f0f90613832565b915050600a82611f1f91906136b4565b9150611efc565b60008167ffffffffffffffff811115611f68577f4e487b7100000000000000000000000000000000000000000000000000000000600052604160045260246000fd5b6040519080825280601f01601f191660200182016040528015611f9a5781602001600182028036833780820191505090505b5090505b6000851461204d57600182611fb391906136e5565b9150600a85611fc2919061387b565b6030611fce919061365e565b60f81b81838151811061200a577f4e487b7100000000000000000000000000000000000000000000000000000000600052603260045260246000fd5b60200101907effffffffffffffffffffffffffffffffffffffffffffffffffffffffffffff1916908160001a905350600a8561204691906136b4565b9450611f9e565b8093505050505b919050565b60007f01ffc9a7000000000000000000000000000000000000000000000000000000007bffffffffffffffffffffffffffffffffffffffffffffffffffffffff1916827bffffffffffffffffffffffffffffffffffffffffffffffffffffffff1916149050919050565b600081600001549050919050565b6001816000016000828254019250508190555050565b6121018282604051806020016040528060008152506123b0565b5050565b61211083838361240b565b600073ffffffffffffffffffffffffffffffffffffffff168373ffffffffffffffffffffffffffffffffffffffff1614156121535761214e81612410565b612192565b8173ffffffffffffffffffffffffffffffffffffffff168373ffffffffffffffffffffffffffffffffffffffff1614612191576121908382612459565b5b5b600073ffffffffffffffffffffffffffffffffffffffff168273ffffffffffffffffffffffffffffffffffffffff1614156121d5576121d0816125c6565b612214565b8273ffffffffffffffffffffffffffffffffffffffff168273ffffffffffffffffffffffffffffffffffffffff1614612213576122128282612709565b5b5b505050565b600061223a8473ffffffffffffffffffffffffffffffffffffffff16612788565b156123a3578373ffffffffffffffffffffffffffffffffffffffff1663150b7a026122636116a9565b8786866040518563ffffffff1660e01b8152600401612285949392919061324c565b602060405180830381600087803b15801561229f57600080fd5b505af19250505080156122d057506040513d601f19601f820116820180604052508101906122cd9190612cf7565b60015b612353573d8060008114612300576040519150601f19603f3d011682016040523d82523d6000602084013e612305565b606091505b5060008151141561234b576040517f08c379a000000000000000000000000000000000000000000000000000000000815260040161234290613315565b60405180910390fd5b805181602001fd5b63150b7a0260e01b7bffffffffffffffffffffffffffffffffffffffffffffffffffffffff1916817bffffffffffffffffffffffffffffffffffffffffffffffffffffffff1916149150506123a8565b600190505b949350505050565b6123ba838361279b565b6123c76000848484612219565b612406576040517f08c379a00000000000000000000000000000000000000000000000000000000081526004016123fd90613315565b60405180910390fd5b505050565b505050565b6008805490506009600083815260200190815260200160002081905550600881908060018154018082558091505060019003906000526020600020016000909190919091505550565b6000600161246684610fa1565b61247091906136e5565b9050600060076000848152602001908152602001600020549050818114612555576000600660008673ffffffffffffffffffffffffffffffffffffffff1673ffffffffffffffffffffffffffffffffffffffff168152602001908152602001600020600084815260200190815260200160002054905080600660008773ffffffffffffffffffffffffffffffffffffffff1673ffffffffffffffffffffffffffffffffffffffff168152602001908152602001600020600084815260200190815260200160002081905550816007600083815260200190815260200160002081905550505b6007600084815260200190815260200160002060009055600660008573ffffffffffffffffffffffffffffffffffffffff1673ffffffffffffffffffffffffffffffffffffffff16815260200190815260200160002060008381526020019081526020016000206000905550505050565b600060016008805490506125da91906136e5565b9050600060096000848152602001908152602001600020549050600060088381548110612630577f4e487b7100000000000000000000000000000000000000000000000000000000600052603260045260246000fd5b906000526020600020015490508060088381548110612678577f4e487b7100000000000000000000000000000000000000000000000000000000600052603260045260246000fd5b9060005260206000200181905550816009600083815260200190815260200160002081905550600960008581526020019081526020016000206000905560088054806126ed577f4e487b7100000000000000000000000000000000000000000000000000000000600052603160045260246000fd5b6001900381819060005260206000200160009055905550505050565b600061271483610fa1565b905081600660008573ffffffffffffffffffffffffffffffffffffffff1673ffffffffffffffffffffffffffffffffffffffff168152602001908152602001600020600083815260200190815260200160002081905550806007600084815260200190815260200160002081905550505050565b600080823b905060008111915050919050565b600073ffffffffffffffffffffffffffffffffffffffff168273ffffffffffffffffffffffffffffffffffffffff16141561280b576040517f08c379a000000000000000000000000000000000000000000000000000000000815260040161280290613475565b60405180910390fd5b6128148161163d565b15612854576040517f08c379a000000000000000000000000000000000000000000000000000000000815260040161284b90613355565b60405180910390fd5b61286060008383612105565b6001600360008473ffffffffffffffffffffffffffffffffffffffff1673ffffffffffffffffffffffffffffffffffffffff16815260200190815260200160002060008282546128b0919061365e565b92505081905550816002600083815260200190815260200160002060006101000a81548173ffffffffffffffffffffffffffffffffffffffff021916908373ffffffffffffffffffffffffffffffffffffffff160217905550808273ffffffffffffffffffffffffffffffffffffffff16600073ffffffffffffffffffffffffffffffffffffffff167fddf252ad1be2c89b69c2b068fc378daa952ba7f163c4a11628f55a4df523b3ef60405160405180910390a45050565b828054612975906137cf565b90600052602060002090601f01602090048101928261299757600085556129de565b82601f106129b057803560ff19168380011785556129de565b828001600101855582156129de579182015b828111156129dd5782358255916020019190600101906129c2565b5b5090506129eb91906129ef565b5090565b5b80821115612a085760008160009055506001016129f0565b5090565b6000612a1f612a1a846135d5565b6135b0565b905082815260208101848484011115612a3757600080fd5b612a4284828561378d565b509392505050565b600081359050612a5981613f3c565b92915050565b600081359050612a6e81613f53565b92915050565b600081359050612a8381613f6a565b92915050565b600081519050612a9881613f6a565b92915050565b600082601f830112612aaf57600080fd5b8135612abf848260208601612a0c565b91505092915050565b60008083601f840112612ada57600080fd5b8235905067ffffffffffffffff811115612af357600080fd5b602083019150836001820283011115612b0b57600080fd5b9250929050565b600081359050612b2181613f81565b92915050565b600060208284031215612b3957600080fd5b6000612b4784828501612a4a565b91505092915050565b60008060408385031215612b6357600080fd5b6000612b7185828601612a4a565b9250506020612b8285828601612a4a565b9150509250929050565b600080600060608486031215612ba157600080fd5b6000612baf86828701612a4a565b9350506020612bc086828701612a4a565b9250506040612bd186828701612b12565b9150509250925092565b60008060008060808587031215612bf157600080fd5b6000612bff87828801612a4a565b9450506020612c1087828801612a4a565b9350506040612c2187828801612b12565b925050606085013567ffffffffffffffff811115612c3e57600080fd5b612c4a87828801612a9e565b91505092959194509250565b60008060408385031215612c6957600080fd5b6000612c7785828601612a4a565b9250506020612c8885828601612a5f565b9150509250929050565b60008060408385031215612ca557600080fd5b6000612cb385828601612a4a565b9250506020612cc485828601612b12565b9150509250929050565b600060208284031215612ce057600080fd5b6000612cee84828501612a74565b91505092915050565b600060208284031215612d0957600080fd5b6000612d1784828501612a89565b91505092915050565b60008060208385031215612d3357600080fd5b600083013567ffffffffffffffff811115612d4d57600080fd5b612d5985828601612ac8565b92509250509250929050565b600060208284031215612d7757600080fd5b6000612d8584828501612b12565b91505092915050565b612d9781613719565b82525050565b612da68161372b565b82525050565b6000612db78261361b565b612dc18185613631565b9350612dd181856020860161379c565b612dda81613968565b840191505092915050565b6000612df082613626565b612dfa8185613642565b9350612e0a81856020860161379c565b612e1381613968565b840191505092915050565b6000612e2982613626565b612e338185613653565b9350612e4381856020860161379c565b80840191505092915050565b60008154612e5c816137cf565b612e668186613653565b94506001821660008114612e815760018114612e9257612ec5565b60ff19831686528186019350612ec5565b612e9b85613606565b60005b83811015612ebd57815481890152600182019150602081019050612e9e565b838801955050505b50505092915050565b6000612edb601483613642565b9150612ee682613979565b602082019050919050565b6000612efe602b83613642565b9150612f09826139a2565b604082019050919050565b6000612f21603283613642565b9150612f2c826139f1565b604082019050919050565b6000612f44602683613642565b9150612f4f82613a40565b604082019050919050565b6000612f67601c83613642565b9150612f7282613a8f565b602082019050919050565b6000612f8a602483613642565b9150612f9582613ab8565b604082019050919050565b6000612fad601983613642565b9150612fb882613b07565b602082019050919050565b6000612fd0602c83613642565b9150612fdb82613b30565b604082019050919050565b6000612ff3601283613642565b9150612ffe82613b7f565b602082019050919050565b6000613016601083613642565b915061302182613ba8565b602082019050919050565b6000613039603883613642565b915061304482613bd1565b604082019050919050565b600061305c602a83613642565b915061306782613c20565b604082019050919050565b600061307f602983613642565b915061308a82613c6f565b604082019050919050565b60006130a2602083613642565b91506130ad82613cbe565b602082019050919050565b60006130c5602c83613642565b91506130d082613ce7565b604082019050919050565b60006130e8600583613653565b91506130f382613d36565b600582019050919050565b600061310b602083613642565b915061311682613d5f565b602082019050919050565b600061312e602983613642565b915061313982613d88565b604082019050919050565b6000613151602f83613642565b915061315c82613dd7565b604082019050919050565b6000613174602183613642565b915061317f82613e26565b604082019050919050565b6000613197603183613642565b91506131a282613e75565b604082019050919050565b60006131ba600883613642565b91506131c582613ec4565b602082019050919050565b60006131dd602c83613642565b91506131e882613eed565b604082019050919050565b6131fc81613783565b82525050565b600061320e8285612e4f565b915061321a8284612e1e565b9150613225826130db565b91508190509392505050565b60006020820190506132466000830184612d8e565b92915050565b60006080820190506132616000830187612d8e565b61326e6020830186612d8e565b61327b60408301856131f3565b818103606083015261328d8184612dac565b905095945050505050565b60006020820190506132ad6000830184612d9d565b92915050565b600060208201905081810360008301526132cd8184612de5565b905092915050565b600060208201905081810360008301526132ee81612ece565b9050919050565b6000602082019050818103600083015261330e81612ef1565b9050919050565b6000602082019050818103600083015261332e81612f14565b9050919050565b6000602082019050818103600083015261334e81612f37565b9050919050565b6000602082019050818103600083015261336e81612f5a565b9050919050565b6000602082019050818103600083015261338e81612f7d565b9050919050565b600060208201905081810360008301526133ae81612fa0565b9050919050565b600060208201905081810360008301526133ce81612fc3565b9050919050565b600060208201905081810360008301526133ee81612fe6565b9050919050565b6000602082019050818103600083015261340e81613009565b9050919050565b6000602082019050818103600083015261342e8161302c565b9050919050565b6000602082019050818103600083015261344e8161304f565b9050919050565b6000602082019050818103600083015261346e81613072565b9050919050565b6000602082019050818103600083015261348e81613095565b9050919050565b600060208201905081810360008301526134ae816130b8565b9050919050565b600060208201905081810360008301526134ce816130fe565b9050919050565b600060208201905081810360008301526134ee81613121565b9050919050565b6000602082019050818103600083015261350e81613144565b9050919050565b6000602082019050818103600083015261352e81613167565b9050919050565b6000602082019050818103600083015261354e8161318a565b9050919050565b6000602082019050818103600083015261356e816131ad565b9050919050565b6000602082019050818103600083015261358e816131d0565b9050919050565b60006020820190506135aa60008301846131f3565b92915050565b60006135ba6135cb565b90506135c68282613801565b919050565b6000604051905090565b600067ffffffffffffffff8211156135f0576135ef613939565b5b6135f982613968565b9050602081019050919050565b60008190508160005260206000209050919050565b600081519050919050565b600081519050919050565b600082825260208201905092915050565b600082825260208201905092915050565b600081905092915050565b600061366982613783565b915061367483613783565b9250827fffffffffffffffffffffffffffffffffffffffffffffffffffffffffffffffff038211156136a9576136a86138ac565b5b828201905092915050565b60006136bf82613783565b91506136ca83613783565b9250826136da576136d96138db565b5b828204905092915050565b60006136f082613783565b91506136fb83613783565b92508282101561370e5761370d6138ac565b5b828203905092915050565b600061372482613763565b9050919050565b60008115159050919050565b60007fffffffff0000000000000000000000000000000000000000000000000000000082169050919050565b600073ffffffffffffffffffffffffffffffffffffffff82169050919050565b6000819050919050565b82818337600083830152505050565b60005b838110156137ba57808201518184015260208101905061379f565b838111156137c9576000848401525b50505050565b600060028204905060018216806137e757607f821691505b602082108114156137fb576137fa61390a565b5b50919050565b61380a82613968565b810181811067ffffffffffffffff8211171561382957613828613939565b5b80604052505050565b600061383d82613783565b91507fffffffffffffffffffffffffffffffffffffffffffffffffffffffffffffffff8214156138705761386f6138ac565b5b600182019050919050565b600061388682613783565b915061389183613783565b9250826138a1576138a06138db565b5b828206905092915050565b7f4e487b7100000000000000000000000000000000000000000000000000000000600052601160045260246000fd5b7f4e487b7100000000000000000000000000000000000000000000000000000000600052601260045260246000fd5b7f4e487b7100000000000000000000000000000000000000000000000000000000600052602260045260246000fd5b7f4e487b7100000000000000000000000000000000000000000000000000000000600052604160045260246000fd5b6000601f19601f8301169050919050565b7f5061757361626c653a206e6f7420706175736564000000000000000000000000600082015250565b7f455243373231456e756d657261626c653a206f776e657220696e646578206f7560008201527f74206f6620626f756e6473000000000000000000000000000000000000000000602082015250565b7f4552433732313a207472616e7366657220746f206e6f6e20455243373231526560008201527f63656976657220696d706c656d656e7465720000000000000000000000000000602082015250565b7f4f776e61626c653a206e6577206f776e657220697320746865207a65726f206160008201527f6464726573730000000000000000000000000000000000000000000000000000602082015250565b7f4552433732313a20746f6b656e20616c7265616479206d696e74656400000000600082015250565b7f4552433732313a207472616e7366657220746f20746865207a65726f2061646460008201527f7265737300000000000000000000000000000000000000000000000000000000602082015250565b7f4552433732313a20617070726f766520746f2063616c6c657200000000000000600082015250565b7f4552433732313a206f70657261746f7220717565727920666f72206e6f6e657860008201527f697374656e7420746f6b656e0000000000000000000000000000000000000000602082015250565b7f496e73756666696369656e742066756e64730000000000000000000000000000600082015250565b7f5061757361626c653a2070617573656400000000000000000000000000000000600082015250565b7f4552433732313a20617070726f76652063616c6c6572206973206e6f74206f7760008201527f6e6572206e6f7220617070726f76656420666f7220616c6c0000000000000000602082015250565b7f4552433732313a2062616c616e636520717565727920666f7220746865207a6560008201527f726f206164647265737300000000000000000000000000000000000000000000602082015250565b7f4552433732313a206f776e657220717565727920666f72206e6f6e657869737460008201527f656e7420746f6b656e0000000000000000000000000000000000000000000000602082015250565b7f4552433732313a206d696e7420746f20746865207a65726f2061646472657373600082015250565b7f4552433732313a20617070726f76656420717565727920666f72206e6f6e657860008201527f697374656e7420746f6b656e0000000000000000000000000000000000000000602082015250565b7f2e6a736f6e000000000000000000000000000000000000000000000000000000600082015250565b7f4f776e61626c653a2063616c6c6572206973206e6f7420746865206f776e6572600082015250565b7f4552433732313a207472616e73666572206f6620746f6b656e2074686174206960008201527f73206e6f74206f776e0000000000000000000000000000000000000000000000602082015250565b7f4552433732314d657461646174613a2055524920717565727920666f72206e6f60008201527f6e6578697374656e7420746f6b656e0000000000000000000000000000000000602082015250565b7f4552433732313a20617070726f76616c20746f2063757272656e74206f776e6560008201527f7200000000000000000000000000000000000000000000000000000000000000602082015250565b7f4552433732313a207472616e736665722063616c6c6572206973206e6f74206f60008201527f776e6572206e6f7220617070726f766564000000000000000000000000000000602082015250565b7f536f6c64206f7574000000000000000000000000000000000000000000000000600082015250565b7f455243373231456e756d657261626c653a20676c6f62616c20696e646578206f60008201527f7574206f6620626f756e64730000000000000000000000000000000000000000602082015250565b613f4581613719565b8114613f5057600080fd5b50565b613f5c8161372b565b8114613f6757600080fd5b50565b613f7381613737565b8114613f7e57600080fd5b50565b613f8a81613783565b8114613f9557600080fd5b5056fea2646970667358221220cf9d2ab7432e86bcd62544b44dd1daeb520cee4541cb7ecaf344b352cedcd48264736f6c63430008040033",
  "linkReferences": {},
  "deployedLinkReferences": {}
}